:020000040800F2
:10000000B0080020F51E0008CD1E0008CF1E000815
:10001000D11E0008D31E0008D51E000800000000F5
:10002000000000000000000000000000D71E0008D3
:10003000D91E000800000000DB1E0008DD1E0008BD
:100040001D1F0008211F0008251F0008291F000888
:100050002D1F0008311F0008351F0008391F000838
:100060003D1F0008411F0008451F0008491F0008E8
:100070004D1F0008511F0008551F0008591F000898
:100080005D1F0008611F0008651F0008691F000848
:100090006D1F0008711F0008751F0008791F0008F8
:1000A0007D1F0008811F0008851F0008891F0008A8
:1000B0008D1F0008911F0008951F0008991F000858
:1000C0009D1F0008A11F0008A51F0008A91F000808
:1000D000AD1F0008B11F0008B51F0008B91F0008B8
:1000E000BD1F0008C11F0008C51F0008C91F000868
:1000F000CD1F0008D11F0008D51F0008D91F000818
:10010000DD1F0008E11F0008E51F0008E91F0008C7
:10011000ED1F0008F11F0008F51F0008F91F000877
:10012000FD1F000801200008052000080920000824
:100130000D200008112000081520000819200008D3
:100140001D20000821200008252000082920000883
:100150002D20000831200008352000083920000833
:100160003D200008412000084520000849200008E3
:100170004D20000851200008552000085920000893
:100180005D20000861200008652000086920000843
:100190006D200008712000087520000879200008F3
:1001A0007D200008812000088520000889200008A3
:1001B0008D20000891200008952000089920000853
:1001C0009D200008A12000087CB50400012600F055
:1001D000FBFB0500002C01D101205AE0206A4028D9
:1001E00094F84000012801D1022052E0012084F857
:1001F000400094F8410000280AD1002084F8400013
:10020000200000F0E0FB41F28831200000F0B4FA59
:100210002068006830F4F850A168491E50EA0120B7
:1002200021680860A06C00902B0000222021200093
:1002300000F0A4FA0100C9B2002926D121680A6899
:1002400014490A40616852EA0162E1680A43E169BF
:100250000A43216A0A4321680A6021684A680E49F4
:100260000A40216952EA014261690A43A1690A43CD
:1002700021684A602168096851F001012268116013
:1002800000216164012184F84110002184F84010AC
:10029000C0B276BD2FFFFF00FEF8E0FF10B50400EE
:1002A000002C01D101201AE094F84000012801D16E
:1002B000022014E0012084F8400020680068400813
:1002C000400021680860200000F084FB002060648A
:1002D000002084F84100002084F84000002010BD78
:1002E0002DE9F84304000D0016005FF0010800F04E
:1002F0006BFB0700A8690028E8690028286A002825
:1003000094F84000012801D102203DE0012084F84A
:10031000400094F8410001282FD1002060640220A1
:1003200084F8410000963B0000222021200000F0CC
:1003300025FA81464846C0B2002820D10022290073
:10034000200000F044FA686A002812D100963B00B1
:1003500001220221200000F011FA81464846C0B275
:1003600000280CD102202168C860012084F84100D7
:1003700005E0012084F8410001E05FF0020900205F
:1003800084F840004846C0B2BDE8F2832DE9F84346
:1003900005000C001600002700F016FB80462868B8
:1003A00010F1200995F84000012801D102205EE0FB
:1003B000012085F8400095F84100012850D1002027
:1003C0006864002C45D0122085F841002868006937
:1003D000401CE86228680069401CA8626C622868BA
:1003E000406930F0406029684861E86A002815D00B
:1003F0000096434601220421280000F0BFF90700BF
:100400003800C0B2002809D1686A411C69620078CE
:1004100089F80000E86A401EE862E6E73800C0B2EA
:10042000002812D10096434601220221280000F044
:10043000A5F907003800C0B2002806D102202968BB
:10044000C860280000F04CF90700012085F8410041
:1004500008E0686C50F0080068640120070001E0C3
:1004600002200700002085F840003800C0B2BDE837
:10047000F2832DE9FC4705000C001600002700F070
:10048000A3FA80462868D0F81890286810F1200A4E
:1004900095F84000012801D1022063E0012085F891
:1004A000400095F84100012855D100206864002CD7
:1004B0004AD0222085F8410028680069401CA863C2
:1004C00028680069401C68632C632868406930F024
:1004D000406050F08060296848612868C0F8189032
:1004E000A86B002815D0009643460122062128005B
:1004F00000F044F907003800C0B2002809D1286B89
:10050000411C29639AF800100170A86B401EA86373
:10051000E6E73800C0B2002812D100964346012217
:100520000221280000F02AF907003800C0B2002894
:1005300006D102202968C860280000F0D1F8070021
:10054000012085F8410008E0686C50F008006864FC
:100550000120070001E002200700002085F840008C
:100560003800C0B2BDE8F6872DE9FC4704000D0055
:1005700016001F005FF0010800F026FA8146A86906
:100580000028E8690028286A002894F8400001281B
:1005900001D102204CE0012084F8400094F8410091
:1005A00001283ED100206064422084F84100009779
:1005B0004B4600222021200000F0E0F88246504601
:1005C000C0B200282FD13068216888627068216825
:1005D0004862B0682168C8622068016831F440014F
:1005E0003069014351F4800120680160F068A8621D
:1005F0005FF000622900200000F0E9F800974B4608
:1006000001220821200000F0B9F882465046C0B20D
:10061000002808D108202168C860012084F8410022
:1006200001E05FF0020A002084F840005046C0B2AA
:10063000BDE8F6872DE9F84304000D0016005FF0D1
:10064000010800F0C1F90700A8690028E86900283E
:10065000286A002894F84000012801D102203DE0DA
:10066000012084F8400094F8410001282FD1002097
:100670006064822084F84100A06C00903B0000225E
:100680002021200000F07AF881464846C0B20028B8
:100690001FD12068016831F00801706801432068AB
:1006A0000160706808280BD1306821680863102049
:1006B0002168C8602068006850F4801021680860D4
:1006C0005FF040622900200000F081F801E05FF057
:1006D0000209002084F840004846C0B2BDE8F28319
:1006E0007CB50400002500F06FF9060094F8410085
:1006F00080073ED5002084F840002068006840074D
:1007000011D52068006830F0040021680860E06BB3
:1007100000F07EF905002800C0B2002803D0606C0C
:1007200050F0040060642068006850F00200216806
:100730000860A06C0090330001220221200000F02C
:100740001DF805002800C0B200280BD10220216846
:10075000C860A06C0090330000222021200000F02F
:100760000DF805002800C0B2002802D1012084F84D
:1007700041002800C0B276BD816470472DE9F04188
:1007800005000E0090461F00069C286880683042D5
:1007900001D0012000E000204146C0B2C9B2884229
:1007A00012D014F1010FF0D0002C04D000F00CF99D
:1007B000C01B8442E9D2042085F84100686C50F0E7
:1007C00001006864012000E00020BDE8F08110B461
:1007D0004B6A002B06D0B2F1406F03D08B6A5B1ED0
:1007E000046823618B69002B79D00B6A002B3ED003
:1007F0008B680468E361CB69002B20D0CC6A0B6B5B
:100800001C434B6B1C434B6A1C434B6954EA8344A7
:100810000B691C430B6A1C43CB681C43CB691C430C
:100820008B691C430B681C43144303685C61B2F181
:10083000406F00F0C6804B680468A361C1E0CC6AD9
:100840000B6B1C434B6B1C434B6A1C434B6954EAB8
:1008500083440B691C430B6A1C43CB691C438B69A3
:100860001C430B681C43144303685C61A9E0CB691B
:10087000002B1ED0CC6A0B6B1C434B6B1C434B6A8A
:100880001C434B6954EA83440B6A1C43CB681C43EA
:10089000CB691C438B691C430B681C4314430368DE
:1008A0005C61B2F1406F00F08C804B680468A3611A
:1008B00087E0CC6A0B6B1C434B6B1C434B6A1C439D
:1008C0004B6954EA83440B6A1C43CB691C438B6914
:1008D0001C430B681C43144303685C6171E00B6AA2
:1008E000002B39D08B680468E361CB69002B1DD0E5
:1008F000CC6A0B6B1C434B6B1C434B6A1C434B6910
:1009000054EA83440B691C430B6A1C43CB681C43A9
:10091000CB691C438B691C43144303685C61B2F1CF
:10092000406F4ED04B680468A3614AE0CC6A0B6B01
:100930001C434B6B1C434B6A1C434B6954EA834476
:100940000B691C430B6A1C43CB691C438B691C431A
:10095000144303685C6134E0CB69002B1BD0CC6A84
:100960000B6B1C434B6B1C434B6A1C434B6954EA97
:1009700083440B6A1C43CB681C43CB691C438B69C3
:100980001C43144303685C61B2F1406F19D04B689B
:100990000468A36115E04B6A002B12D0CC6A0B6B84
:1009A0001C434B6B1C434B6A1C434B6954EA834406
:1009B0000B6A1C43CB691C438B691C4314430368BB
:1009C0005C6110BC7047704701480068704700BF09
:1009D000AC000020704730B4002513E050F8042B21
:1009E000D30744BFA9F101039A18091F042942F84B
:1009F000045BFAD213468C0744BF15809B1CC907C1
:100A000048BF1D7050F8041B0029E7D130BC704767
:100A100070B50400A56DFFF7D7FF060094F8350008
:100A2000022806D080206065002084F83400012070
:100A30003BE02068006830F01600216808602068FC
:100A4000406930F0800021684861206C002802D1A4
:100A5000A06C002805D02068006830F008002168EC
:100A6000086020680068400840002168086020682D
:100A70000068C0070ED5FFF7A7FF801B0628F6D336
:100A800020206065002084F83400032084F83500BD
:100A900003200AE03F21E06D8140A960002084F836
:100AA0003400012084F83500002070BD2DE9FC41A0
:100AB00004000026002C01D10120D8E12078C007D5
:100AC0006DD5DFF89405016811F00C01042909D0F7
:100AD000006810F00C0008280ED1DFF880050068CF
:100AE000400209D5DFF86C050068800357D56068BF
:100AF000002854D10120BAE16068B0F5803F06D1EA
:100B0000DFF85005016851F48031016026E060682B
:100B100000280AD1DFF83C05016831F4803101601A
:100B2000016831F48021016018E06068B0F5A02F01
:100B30000AD1DFF82005016851F4802101600168C5
:100B400051F48031016009E0DFF80805016831F4F3
:100B500080310160016831F4802101606068002803
:100B60000ED0FFF731FF0500DFF8E80400688003CE
:100B700015D4FFF729FF401B6528F5D3032076E144
:100B8000FFF722FF0500DFF8CC040068800306D5DC
:100B9000FFF71AFF401B6528F5D3032067E1207893
:100BA000800752D5DFF8B004016811F00C0F09D0AE
:100BB000006810F00C00082816D1DFF8A0040068C7
:100BC000400211D4DFF88C040168890704D5E1687C
:100BD000012901D001204AE1016831F0F8012269C0
:100BE00051EAC201016030E0E06800281AD0DFF865
:100BF0006474386850F001003860FFF7E5FE0500C6
:100C00003868800706D4FFF7DFFE401B0328F7D3C0
:100C100003202CE1386830F0F800216950EAC10067
:100C2000386012E0DFF82C74386840084000386003
:100C3000FFF7CAFE05003868800706D5FFF7C4FE37
:100C4000401B0328F7D3032011E12078000728D5A3
:100C50006069002812D0DFF80874386850F001008D
:100C60003860FFF7B1FE05003868800719D4FFF738
:100C7000ABFE401B0328F7D30320F8E0DFF8E07356
:100C80003868400840003860FFF79EFE050038686D
:100C9000800706D5FFF798FE401B0328F7D30320F3
:100CA000E5E02078400740F18780DFF8C0733868BE
:100CB000C0000AD4386850F080503860386810F0AE
:100CC00080500090009801200600DFF8A483D8F837
:100CD0000000C00513D4D8F8000050F48070C8F8A4
:100CE0000000FFF771FE0500D8F80000C00506D42B
:100CF000FFF76AFE401B6528F6D30320B7E0A06823
:100D0000012806D1DFF86C03016851F00101016090
:100D100025E0A06800280AD1DFF8580301684908D7
:100D200049000160016831F00401016017E0A0682A
:100D300005280AD1DFF83C03016851F00401016085
:100D4000016851F00101016009E0DFF82803016842
:100D5000490849000160016831F004010160A068A0
:100D6000002810D0FFF730FE0500DFF80803006808
:100D7000800719D4FFF728FE401B41F289318842D1
:100D8000F3D3032073E0FFF71FFE0500DFF8E40252
:100D90000068800708D5FFF717FE401B41F2893134
:100DA0008842F3D3032062E03000C0B2012803D1AF
:100DB000386830F080503860A069002856D0DFF8DD
:100DC0009802006810F00C0008284DD0A069022895
:100DD00037D1DFF88072386830F080703860FFF704
:100DE000F3FD80463868800107D5FFF7EDFDB0EBD5
:100DF00008000328F6D3032039E0E169206A0143A3
:100E0000606A51EA8011A06A4008401E51EA004120
:100E1000E06A51EA006151F00051DFF840020160E0
:100E2000386850F080703860FFF7CEFD05003868F4
:100E300080011BD4FFF7C8FD401B0328F7D3032014
:100E400015E0DFF81072386830F080703860FFF716
:100E5000BBFD05003868800108D5FFF7B5FD401BD4
:100E60000328F7D3032002E0012000E00020BDE8C2
:100E7000F6812DE9F04104000D000026002C01D17F
:100E800001209FE0DFF8F071386810F00F00A842F1
:100E90000BD238680009000128433860386810F028
:100EA0000F00A84201D001208CE02078800719D5DE
:100EB0002078400705D5DFF8A001016851F4E05122
:100EC00001602078000705D5DFF88C01016851F436
:100ED00060410160DFF880110A6832F0F002A0681A
:100EE00002430A602078C00737D56068012806D120
:100EF000DFF860010068800311D4012062E06068BF
:100F0000022806D1DFF84C010068800107D40120D7
:100F100058E050480068800701D4012052E0DFF813
:100F20003881D8F800108908890060680143C8F842
:100F30000010FFF749FD0600D8F8000010F00C0083
:100F40006168B0EB810F08D0FFF73EFD801B41F2D6
:100F500089318842F0D3032034E0386810F00F0064
:100F600085420BD238680009000128433860386890
:100F700010F00F00A84201D0012023E020784007A4
:100F800006D535490A6832F4E052E06802430A6047
:100F90002078000707D53048016831F460412269A4
:100FA00051EAC201016000F00FF834492A4A126880
:100FB000C2F30312895CC8402B4908600F2000F07F
:100FC00061F80020BDE8F0812DE9F0410024002502
:100FD000002600272048006810F00C00002804D0EC
:100FE000042804D0082804D031E01E4830E024480A
:100FF0002EE0DFF86880D8F8000010F03F00040011
:10100000D8F8000040020CD5D8F80000C0F38810D2
:101010001B49A1FB00012200002300F059F8050044
:101020000BE0D8F80000C0F388100E49A1FB0001C6
:101030002200002300F04CF80500D8F80000C0F3AF
:101040000140401C40000600B5FBF6F000E00548FA
:10105000BDE8F08100380240083802400438024000
:10106000743802400024F40004000020403802409C
:101070000070004070380240003C0240E41E00084E
:1010800040787D0110B504004FF47A700D4909785D
:10109000B0FBF1F00C490968B1FBF0F000F0B0F9D9
:1010A000002801D001200CE0102C09D200222100E0
:1010B0005FF0FF3000F08FF904480460002000E08A
:1010C000012010BD080000200400002000000020C6
:1010D000BBBBE1B1B2F5803F80F07E80022A1ED911
:1010E0008C46B1FBF2F102FB11C31B0443EA10432F
:1010F000B3FBF2FC02FB1C3380B240EA0343B3FBB8
:10110000F2F002FB103240EA0C4000237047022A42
:1011100005D98446B0FBF2F002FB10C270474AB119
:1011200005D100F0010249085FEA30007047002253
:101130000023704700F078B90B0002000021002066
:101140007047904271EB030CF6D3B3F5803F2FD27A
:10115000F0B5B3FA83F7B1FA81F4A7F10F0E3D1B96
:101160005340CEF1200602FA0EF2F3415340B5F19E
:101170000F0746D80F3C2C444140C4F12006A04044
:10118000F1414140B1FBF3F603FB1611A2FB06450A
:10119000001BA94102D2761E8018594180EA010243
:1011A00021FA0EF362FA0EF200215A403046F0BDE9
:1011B00030B4B1FBF3FC03FB1C11A2FB0C45001B7C
:1011C000A94103D2ACF1010C8018594130BC024650
:1011D0000B46604600217047B2F1807F65D3F0B5C1
:1011E000B2FA82F7B1FA81F4C7F10F063D1B22FA79
:1011F00006F307F1110EF24120355A40B5F10F0701
:10120000B8D94140C4F12006A040F1414140B1FBB2
:10121000F3FC03FB1C11A2FB0C45001BA94103D2EC
:10122000BCF1010C801859410F2F12D30F3FC90395
:1012300041EA5041B1FBF3F603FB1611A2FB064550
:10124000D4EBC030A94102D2761E8018594146EA3B
:10125000CC3C07B34140C7F12006B840F1414140C2
:10126000B1FBF3F603FB1611A2FB0645001BA941D7
:1012700002D2761E8018594180EA010221FA0EF34B
:10128000C7F1200462FA0EF20CFA07F05A402CFA69
:1012900004F13043F0BD80EA010221FA0EF300218F
:1012A00062FA0EF260465A40F0BD8C46B1FBF2F194
:1012B00002FB11C31B0243EA1063B3FBF2FC02FB07
:1012C0001C331B024CEA002043EA1063B3FBF2FC20
:1012D00002FB1C331B024CEA002043EA1063B3FB01
:1012E000F2FC02FB1C331B024CEA002043EA1063B1
:1012F000B3FBF2FC02FB1C324CEA002000237047D7
:1013000010B410F00703DFF8044122684FF6FF0124
:101310000A40DFF8FC1051EA03210A43226010BCA6
:101320007047DFF8E8000068C0F30220704710B48F
:10133000020052B2002A05D40A01364B040064B2FE
:101340001A5508E00A01344B040064B214F00F048B
:10135000234403F8042C10BC704770B4030013F04E
:101360000704D4F10700052801D3042001E0D4F1DB
:101370000700251D072D01D2002500E0E51E0126EE
:1013800016FA00F0401E0140A94016FA05F56D1E40
:101390002A401143080070BC704710B50400601E5D
:1013A000B0F1807F01D301200EE0601E1B49086070
:1013B0000F215FF0FF30FFF7BAFF002018490860E7
:1013C000072018490860002010BD10B50400200057
:1013D000FFF796FF10BD2DE9F04104000D00160047
:1013E0000027FFF79EFF8046320029004046FFF7A6
:1013F000B4FF0100200040B2FFF799FFBDE8F08183
:1014000010B504002000FFF7C8FF10BD0CED00E090
:101410000000FA0500E400E018ED00E014E000E050
:1014200018E000E010E000E07047000010B5CC4C80
:10143000CC4820602000FEF731FF002801D00120B9
:1014400055E000F095F9C8480021C1610021016212
:1014500000214162002141610021C162002101633C
:10146000002141634FF40051C160C0480021016177
:101470000121C160102181605FF480014161012080
:1014800060600420A0601020E0608020B0FA80F04E
:10149000401E20614FF4A06060610020A061002028
:1014A000E061002020622000FEF78EFE002801D0BF
:1014B00001201CE0200000F01BF8002801D00120D2
:1014C00015E0200000F0ACF8002801D001200EE06B
:1014D000200000F04DF8002801D0012007E0200096
:1014E00000F028F8002801D0012000E0002010BD05
:1014F00070B504009C4D4FF48070A8616620286090
:101500000020686241F28836320029002000FEF790
:10151000E7FE002801D001200BE09920286032006E
:1015200029002000FEF7DCFE002801D0012000E0A9
:10153000002070BD1CB504008B494FF440708861D9
:10154000EB2008604FF44060C8615FF04070486273
:101550000A20486100200190002000906A46200087
:10156000FFF768F8002801D0012000E0002016BD38
:1015700030B58FB004004FF4807007908520019043
:1015800000200890002009905FF080700A900020F1
:10159000069001200B9000200C9000200D90002060
:1015A0000E9041F288352A0001A92000FEF798FE2E
:1015B000002801D0012031E02A0069462000FEF712
:1015C00058FF002801D0012028E0200000F09EF8FC
:1015D000002801D0012021E0812001909DF8001019
:1015E00011F00F010A225FF07060B0FA80F08240C3
:1015F00011438DF800102A0001A92000FEF770FEAB
:10160000002801D0012009E02A0069462000FEF7E9
:10161000BDFE002801D0012000E000200FB030BD49
:10162000F0B595B004004FF4807007900020099049
:101630000020069000200C9000200D9000200E90BD
:1016400010201190002013905FF48000149065200A
:101650000190002008905FF080750A9501200B90A2
:101660003F4E41F288373A0001A93000FEF738FEBC
:10167000002801D0012047E03A0069463000FEF71B
:10168000F8FE002801D001203EE006200190002055
:101690000A903A0001A93000FEF722FE002801D08E
:1016A000012031E002200F900220109001201290C2
:1016B000052001900A953B000FAA01A93000FEF712
:1016C00053FF002801D001201EE06120019001207D
:1016D0000B909DF8000010F03F0050F040008DF896
:1016E00000003A0001A93000FEF7FAFD002801D001
:1016F000012009E03A0069463000FEF747FE002865
:1017000001D0012000E0002015B0F0BD70B504004C
:10171000154D4FF44070A8610620286000206862D3
:1017200041F28836320029002000FEF7D9FD00285A
:1017300001D0012013E00D4A022010600220506009
:10174000052028605FF040706862330029002000A7
:10175000FEF70AFF002801D0012000E0002070BD44
:101760000C000020001000A0580000209000002075
:1017700010B586B03648016851F00201016000687A
:1017800010F00200059005983248016851F00201FE
:101790000160016831F0020101602F48016851F0D9
:1017A00002010160016811F00201059105990168CB
:1017B00051F008010160016811F0080105910599D7
:1017C000016851F010010160006810F010000590F0
:1017D0000598402000900A200490022001900120EA
:1017E0000290022003901D4C6946200000F03CF856
:1017F00004200090092004900020029069462000F7
:1018000000F032F84FF40060009009200490144C6E
:101810006946200000F028F84FF48050009009201D
:1018200004906946200000F01FF804200090092071
:10183000049069460B4800F017F84FF400500090F0
:10184000092004906946200000F00EF806B010BD93
:101850003838024018380240303802400004024054
:10186000000C0240001002402DE9F8410022002344
:10187000002400260025102D80F00B81012717FA87
:1018800005F213000A681A4014009C4240F0FF80E1
:101890004A68022A02D04A68122A1FD12A00D208B6
:1018A00000EB8202D2F820C05FF00F0E15F00702A5
:1018B000D2B292001EFA02FE3CEA0E0CD1F810E001
:1018C00015F00702D2B292001EFA02FE5EEA0C0C7C
:1018D00066462A00D20800EB82021662D0F800C0E9
:1018E0005FF0030E2A00D2B252001EFA02F23CEA66
:1018F000020C91F8048018F003082A00D2B25200BA
:1019000018FA02F858EA0C0CC0F800C04A68012A1C
:1019100008D04A68022A05D04A68112A02D04A68CB
:10192000122A1BD186682A00D2B252001EFA02F295
:101930009643D1F80C802A00D2B2520018FA02F86D
:1019400058EA060686604268AF40BA434F68C7F35C
:101950000017AF403A439446C0F804C0C6682A0056
:10196000D2B252001EFA02FE36EA0E068F682A0034
:10197000D2B2520097403E43C6604A68D20040F15E
:101980008680DFF81421176857F4804717601268C3
:1019900012F480420092009ADFF800C12A009208F7
:1019A0005CF822705FF00F0E15F00302D2B29200C5
:1019B0001EFA02FE37EA0E07DFF8E420904201D15A
:1019C000002631E0DFF8DC20904201D101262BE037
:1019D000DFF8D420904201D1022625E0DFF8CC20A8
:1019E000904201D103261FE0DFF8C420904201D1CC
:1019F000042619E02F4A904201D1052614E02E4A10
:101A0000904201D106260FE02C4A904201D10726D0
:101A10000AE02B4A904201D1082605E0294A90426B
:101A200001D1092600E00A26F6B215F00302D2B26F
:101A30009200964037432A0092084CF82270224EBA
:101A40003268A243D1F804C05FEACC3C00D52243FF
:101A500032601E4F3E68A643D1F804C05FEA8C3C5A
:101A600000D526433E601A4F3A68A243D1F804C01D
:101A70005FEACC2C00D522433A60164F3E68A6435D
:101A8000D1F804C05FEA8C2C00D526433E606D1C63
:101A9000F1E6BDE8F1810000443802400838014019
:101AA000000002400004024000080240000C024016
:101AB000001002400014024000180240001C0240C6
:101AC0000020024000240240003C0140043C014050
:101AD000083C01400C3C0140BFF34F8FBFF36F8FB8
:101AE000002049490860BFF34F8FBFF36F8F47480D
:101AF000016851F400310160BFF34F8FBFF36F8F66
:101B00007047BFF34F8FBFF36F8F4048016831F4C8
:101B10000031016000203C490860BFF34F8FBFF3E4
:101B20006F8F704710B4002039490860BFF34F8FA2
:101B300038480168C1F34E32C1F3C900030043F6CF
:101B4000E07010EA421050EA8370334C20601800B5
:101B5000431E0028F3D11000421E0028ECD1BFF331
:101B60004F8F2A48046854F480340460BFF34F8FC9
:101B7000BFF36F8F10BC704710B400202449086079
:101B8000BFF34F8F2148016831F480310160BFF30A
:101B90004F8F20480168C1F34E32C1F3C9000300E2
:101BA00043F6E07010EA421050EA83701B4C20604C
:101BB0001800431E0028F3D11000421E0028ECD16B
:101BC000BFF34F8FBFF36F8F10BC704780B500F02D
:101BD00072F800F07DF800F030F800F027F80028E7
:101BE00001D000F029F800F06CF800200C490860E2
:101BF0000C480D49096801605FF01041096881F3E4
:101C0000088800688047FEE750EF00E014ED00E030
:101C100084ED00E080ED00E060EF00E074EF00E0B4
:101C200010E000E0A80000200400009010B500249F
:101C3000FFF7FCFB204310BDFEE730B591B0002458
:101C4000012005905FF48030069002200B905FF435
:101C500080000C9019200D904FF4D8700E90022047
:101C60000F900820109005A8FEF720FF050028001F
:101C7000C0B2002800D0FEE700F03EF804002000CB
:101C8000C0B2002800D0FEE70F2000900220019093
:101C9000002002904FF4A05003904FF48050049025
:101CA00006216846FFF7E5F80100C9B2002900D017
:101CB000FEE711B030BD80B5FFF70EFFFFF732FF32
:101CC00001BD80B5FFF71DFFFFF756FF01BD000006
:101CD00080B50748016851F4807101600320FFF767
:101CE00074FB0F20FFF7CEF900F004F8002002BDCE
:101CF000003C0240704700007CB500241B4801688E
:101D000051F080510160006810F080500090009800
:101D1000154E306850F480303060FEF755FE0500F7
:101D2000104C2068C00308D4FEF74EFE401B40F262
:101D3000E9318842F4D3032013E0306850F40030D6
:101D40003060FEF741FE06002068800308D4FEF7ED
:101D50003BFE801B40F2E9318842F5D3032000E0CE
:101D6000002076BD04700040007000404038024002
:101D70000F48016851F4700101600E49086850F085
:101D80000100086000200C4A10600A680B480240FD
:101D90000A600B480B4A1060086830F48020086025
:101DA0000020094908605FF000600849086070473A
:101DB00088ED00E00038024008380240FFFFF6FEE0
:101DC00010300024043802400C38024008ED00E0D6
:101DD00030B450F8041B79B10268436802440830FB
:101DE000DC0744BFA9F10104E31852F8045B43F88F
:101DF000045B091FF9D1ECE730BC704710B5074907
:101E000079441831064C7C44163404E00A68081DF5
:101E1000114488470146A142F8D110BD2C000000B2
:101E20004C0000004EF68851CEF20001086840F4E4
:101E300070000860BFF34F8FBFF36F8F4FF00070DB
:101E4000E1EE100A704700008FEBFFFFA4000000D6
:101E50000C0000200000000079FFFFFF0C000000D4
:101E6000B0000000000000200000000000F00DF8AD
:101E7000002801D0FFF7C2FFAFF300800020AFF3CE
:101E80000080FFF7A3FE00F002F80120704700F089
:101E900001B800000746384600F002F8FBE70000F2
:101EA00080B5AFF30080024A11001820ABBEFBE7FB
:101EB0002600020003480168034A1278891801606D
:101EC000704700BFAC000020080000207047FEE70C
:101ED000FEE7FEE7FEE770477047704780B5FFF703
:101EE000E9FF01BD00000000000000000102030442
:101EF000060708090148804701480047711D00088E
:101F0000051F0008AFF30080FFF78CFFFFF7AEFF5F
:101F1000100000000024F40001000000FFF7FEBFE5
:101F2000FFF7FEBFFFF7FEBFFFF7FEBFFFF7FEBFE5
:101F3000FFF7FEBFFFF7FEBFFFF7FEBFFFF7FEBFD5
:101F4000FFF7FEBFFFF7FEBFFFF7FEBFFFF7FEBFC5
:101F5000FFF7FEBFFFF7FEBFFFF7FEBFFFF7FEBFB5
:101F6000FFF7FEBFFFF7FEBFFFF7FEBFFFF7FEBFA5
:101F7000FFF7FEBFFFF7FEBFFFF7FEBFFFF7FEBF95
:101F8000FFF7FEBFFFF7FEBFFFF7FEBFFFF7FEBF85
:101F9000FFF7FEBFFFF7FEBFFFF7FEBFFFF7FEBF75
:101FA000FFF7FEBFFFF7FEBFFFF7FEBFFFF7FEBF65
:101FB000FFF7FEBFFFF7FEBFFFF7FEBFFFF7FEBF55
:101FC000FFF7FEBFFFF7FEBFFFF7FEBFFFF7FEBF45
:101FD000FFF7FEBFFFF7FEBFFFF7FEBFFFF7FEBF35
:101FE000FFF7FEBFFFF7FEBFFFF7FEBFFFF7FEBF25
:101FF000FFF7FEBFFFF7FEBFFFF7FEBFFFF7FEBF15
:10200000FFF7FEBFFFF7FEBFFFF7FEBFFFF7FEBF04
:10201000FFF7FEBFFFF7FEBFFFF7FEBFFFF7FEBFF4
:10202000FFF7FEBFFFF7FEBFFFF7FEBFFFF7FEBFE4
:10203000FFF7FEBFFFF7FEBFFFF7FEBFFFF7FEBFD4
:10204000FFF7FEBFFFF7FEBFFFF7FEBFFFF7FEBFC4
:10205000FFF7FEBFFFF7FEBFFFF7FEBFFFF7FEBFB4
:10206000FFF7FEBFFFF7FEBFFFF7FEBFFFF7FEBFA4
:10207000FFF7FEBFFFF7FEBFFFF7FEBFFFF7FEBF94
:10208000FFF7FEBFFFF7FEBFFFF7FEBFFFF7FEBF84
:10209000FFF7FEBFFFF7FEBFFFF7FEBFFFF7FEBF74
:0420A000FFF7FEBF89
:0200000490006A
:1000000000000520999000901F3B0090213B00903C
:10001000233B0090253B0090273B00900000000010
:10002000000000000000000000000000B18400900B
:10003000293B00900000000051850090B58500909C
:10004000E9900090E9900090E9900090E99000908C
:10005000E9900090E9900090E9900090E99000907C
:10006000E9900090E9900090E9900090E99000906C
:10007000E9900090E9900090E9900090E99000905C
:10008000E9900090E9900090E9900090E99000904C
:10009000E9900090E9900090E9900090E99000903C
:1000A000E9900090E9900090E9900090E99000902C
:1000B000E9900090E9900090E9900090E99000901C
:1000C000E9900090E9900090E9900090E99000900C
:1000D000E9900090E9900090E9900090E9900090FC
:1000E000E9900090E9900090E9900090E9900090EC
:1000F000E9900090E9900090E9900090E9900090DC
:10010000E9900090E9900090E9900090E9900090CB
:10011000E9900090E99000902D3B0090E9900090CC
:10012000E9900090E9900090E9900090E9900090AB
:10013000E9900090E9900090E9900090E99000909B
:10014000E9900090E9900090E9900090E99000908B
:10015000E9900090E9900090E9900090E99000907B
:10016000E9900090E9900090E9900090E99000906B
:10017000E9900090E9900090E9900090E99000905B
:10018000E9900090E9900090E9900090E99000904B
:10019000E9900090E9900090E9900090E99000903B
:1001A000393B0090E9900090453B0090E990009029
:1001B000E9900090E9900090E9900090E99000901B
:0801C000E9900090E990009025
:1001D00010B5054C237833B9044B13B10448AFF381
:1001E00000800123237010BD2401002000000000C6
:1001F000E007029008B5034B1BB103490348AFF376
:10020000008008BD0000000028010020E0070290E7
:1002100053B94AB9002908BF00281CBF4FF0FF316D
:100220004FF0FF3000F072B9ADF1080C6DE904CE6B
:1002300000F006F8DDF804E0DDE9022304B07047C1
:100240002DE9F047089E04468846002B4BD18A4290
:10025000154667D9B2FA82F24AB1C2F1200701FA13
:1002600002F320FA07F7954047EA030894404FEA63
:10027000154E230CB8FBFEF71FFA85FC0EFB178802
:1002800043EA084307FB0CF1994209D9EB1807F13F
:10029000FF3080F01B81994240F21881023F2B44CD
:1002A0005B1AA4B2B3FBFEF00EFB103344EA034426
:1002B00000FB0CFCA44509D92C1900F1FF3380F098
:1002C0000781A44540F2048102382C4440EA0740EB
:1002D000A4EB0C0400271EB1D4400023C6E9004360
:1002E0003946BDE8F0878B4209D9002E00F0EB803B
:1002F0000027C6E9000138463946BDE8F087B3FA61
:1003000083F7002F47D18B4202D3824200F2FA805A
:10031000841A61EB030301209846002EE0D0C6E961
:100320000048DDE702B9FFDEB2FA82F2002A40F0AF
:100330008F80491B4FEA154E1FFA85F80127B1FB44
:10034000FEFC230C0EFB1C1143EA014308FB0CF1DD
:10035000994207D9EB180CF1FF3002D2994200F212
:10036000CD808446591AA3B2B1FBFEF00EFB1014E7
:1003700043EA044408FB00F8A04507D92C1900F112
:10038000FF3302D2A04500F2B6801846A4EB080461
:1003900040EA0C409FE7C7F1200CBB4022FA0CFE5C
:1003A0004EEA030E01FA07F420FA0CF521FA0CF3D9
:1003B0004FEA1E482543B3FBF8F92C0C08FB193310
:1003C0001FFA8EFA44EA034309FB0AF49C4202FA3C
:1003D00007F200FA07F10BD91EEB030309F1FF3016
:1003E00080F087809C4240F28480A9F10209734426
:1003F0001B1BADB2B3FBF8F008FB103345EA034416
:1004000000FB0AFAA24508D91EEB040400F1FF33F1
:100410006BD2A24569D90238744440EA0940A0FB76
:100420000289A4EB0A044C45C2464B4654D351D032
:10043000002E69D0B1EB0A0564EB030404FA0CFC4E
:10044000FD40FC404CEA0505C6E90054002747E79B
:10045000C2F1200320FA03F7954001FA02F021FAD5
:1004600003F34FEA154E3843010CB3FBFEF71FFAB6
:1004700085F80EFB173341EA034107FB08F38B4273
:1004800004FA02F407D9691807F1FF3C2FD28B4216
:100490002DD9023F2944CB1A81B2B3FBFEF00EFBEB
:1004A000103341EA034100FB08F38B4207D9691876
:1004B00000F1FF3C17D28B4215D902382944C91AE2
:1004C00040EA07473BE73746304609E70746E7E695
:1004D0001846FBE64145ABD2B8EB020A69EB0E02C7
:1004E00001381346A4E76046E9E7184695E76746F2
:1004F000D1E781467CE702382C4447E7ACF1020C97
:100500002B442FE7384608E73746E9E6704700BF37
:1005100001F0FF01102A2BDB10F0070F08D010F8B4
:10052000013B013A8B422DD010F0070F42B3F6D1B8
:10053000F0B441EA012141EA014122F007047FF0D1
:1005400000070023F0E80256083C85EA010586EA28
:10055000010685FA47F5A3FA87F586FA47F6A5FA64
:1005600087F68EB9EED1F0BC01F0FF0102F0070270
:1005700032B110F8013B013A83EA010313B1F8D11B
:100580000020704701387047002D06BF35460338FC
:10059000073815F0010F07D1013015F4807F02BF35
:1005A000013015F4C03F0130F0BC0138704700BF86
:1005B0007047704770477047704700F0CEB810B56D
:1005C000044641F2FC211FF021F9204610BD000035
:1005D00010B5044600F0BAF9014B2046236010BD67
:1005E00098080290704704387047704710B5044669
:1005F00010211FF00BF9204610BDA0F10400F5E713
:100600000022C1608260044A10B502F10804203261
:100610000460426010BD00BFC408029070470438F7
:100620007047704710B5044610211FF0EFF82046C0
:1006300010BDA0F10400F5E70022C1608260044A09
:1006400010B502F1080420320460426010BD00BF02
:10065000EC0802907047704700F0E7BA10B5044606
:1006600040F678111FF0D2F8204610BD10B50446B0
:1006700000F09EFB014B2046236010BD1C09029038
:100680000022026070477047704700F59673086853
:10069000496803C37047704710B504464FF4AC7106
:1006A0001FF0B4F8204610BD10B50446D0F8540130
:1006B000FFF7E9FF2046BDE810400EF00BBE10B575
:1006C0000446D0F83C0158B10368DB68984738B15C
:1006D000D4F83C0103689B6898470023C4F83C3178
:1006E00010BD000010B5044601F000FA014B204691
:1006F000236010BD50090290002070478180704730
:10070000C1807047018170474181704770477047D1
:10071000704770477047C388D21A8388C91A036824
:1007200012B209B210B45DF8044B1B6D18474FF6B6
:10073000FF7383814FF0FF3303621368C36110605E
:1007400070477047704790F825201AB190F8242020
:1007500002B118607047704770477047704730B4F7
:10076000C568034644686A10ED079B6804EB020005
:1007700048BFA25830BC48BFD358184743682BB174
:1007800083682BB9C06800F00100704718467047B5
:100790000120704710B5044608211FF037F82046A5
:1007A00010BD10B5044610211FF030F8204610BDD2
:1007B00010B5044641F2FC211FF028F8204610BD78
:1007C00000F53070884208B505D10EF043FEBDE853
:1007D000084001F0CFB908BD0A4A026000228280B9
:1007E000C280028142818281C28102824282C261D0
:1007F0000284428480F82420C0E90522012280F886
:10080000252070471C38029070B5036804461546D1
:10081000DB6A98472368294620461B6BBDE8704079
:10082000184770B504461E46BDF91050FFF7ECFF9F
:100830002368314620465A6B904723682946204654
:100840009B6BBDE87040184710B504462622002176
:100850001FF05DF82046FFF7BFFF044B20462360E2
:10086000FF2384F826300023A36210BD8832029053
:1008700038B504460D46262200211FF048F82046D0
:10088000FFF7AAFF064B2046294623602B88E38406
:10089000FF2384F828300DF062F8204638BD00BFF1
:1008A000B8340290FF22002370B502720446124A47
:1008B000124E026032684360C0E9033392F876104A
:1008C00009B1D06C00B9906803685B6A98473368D7
:1008D000B0FA80F5D86C6D0928B103685B6A984757
:1008E000002808BF01252DB9054B2C21054A0648D3
:1008F0001EF098FF204670BD2C2E02908C320120F5
:10090000B4090290A40A0290120A029010B504469B
:10091000262200211EF0FBFF2046FFF75DFF094B5A
:100920004FF47F0220462360074BA3624FF6FF730C
:10093000A3850023C4E90C3284F8383084F83930B8
:1009400010BD00BFE0310290940902902DE9F04FF4
:1009500004468FB0002510F01BF9A146AA4BE563B1
:100960000EAE49F8403B4846FFF76EFF04F16C03BA
:100970004FF6FF7B04F1C40718460793FFF764FFA7
:1009800004F1980326F808BD04F5E27A31461846CA
:100990000293FFF76DFF384604F5F87808F0E6FC9F
:1009A0005046ADF830B0FFF77DFF984B3146C4F8A4
:1009B000D8515046C4F8C431C4F8DC51C4F8E051F1
:1009C000C4F8E4B1C4F8E851A4F8EC510BF0B2F962
:1009D00031464046ADF830B00CF024F804F507730A
:1009E00018460393FFF792FF04F516733146ADF8EE
:1009F00030B018460493FFF73BFF04F521734FF422
:100A0000F07B18460593FFF781FF04F53073184615
:100A100006930CF07DFF7E4BC4F8085304F5437039
:100A2000C4F8FC324FF47F617A4BC4F80043C4F839
:100A300004330DF007F8CDF800B02A4629464846A1
:100A40004FF48873FFF7EDFE4FF07F43CDF800B011
:100A50002A46A366294607984FF48873FFF7E1FEFC
:100A60006D4B67220298C4F894304FF00F0B14219D
:100A7000FFF7CAFE31460298ADF830B00CF06FFFB8
:100A8000384693225421FFF7BFFE68232A462946A1
:100A90000093384608F002FC2B460095294638465C
:100AA000642208F02DFD34223846114608F0AAFBD6
:100AB0003846322108F0BAFB2946384608F0C0FB18
:100AC0004FF4B4722946384608F030FC0123314611
:100AD0005046ADF830300BF02DF95146384608F04D
:100AE000C4FB38463C21DFF838A108F004FC0C2395
:100AF00031464046ADF830300CF031FF4023A7229C
:100B0000404669210093FFF78CFE294640460BF0D2
:100B10004FFFBA2203987921FFF776FE3F4BA4F8E6
:100B200050523146C4F84C320E230398ADF834309D
:100B3000CDF830A00CF051FB40F22D120498232187
:100B4000FFF762FE0D2331460498ADF830300CF00B
:100B500006FF40F2351205987421FFF755FE4FF05D
:100B6000FF33A4F8B8523146C4F8B4320598CDF832
:100B700030A0ADF834B00CF030FB06984FF4D072D2
:100B8000CA21FFF741FE0AAA0BAB09A906980096F5
:100B9000ADF82450ADF82850ADF82C50ADF83050D9
:100BA0000CF012FE04F53F73A4F8F852A4F8FA52C0
:100BB000251DC4F8E8324946284608F04BFE07993F
:100BC000284608F047FE0299284608F043FE3946B9
:100BD000284608F03FFE4146284608F03BFE0399B0
:100BE000284608F037FE0499284608F033FE059998
:100BF000284608F02FFE2846069908F02BFE2046CE
:100C00000FB0BDE8F08F00BF780A0290902D0290DF
:100C1000A4090290C1070090FA667FFFFFA759FF61
:100C200094090290806A7047704770477047704718
:100C3000704730B4C568034644686A10ED079B6886
:100C400004EB020048BFA25830BC48BFD358184735
:100C500043682BB183682BB9C06800F0010070476E
:100C6000184670470120704781857047808D704716
:100C700010B5044630211EF0C9FD204610BD10B548
:100C800004463C211EF0C2FD204610BD10B50446AE
:100C900010211EF0BBFD204610BD10B5044640F6E5
:100CA00078111EF0B3FD204610BD70B50446C06A31
:100CB0000D4658B10368DB68984738B1E06A2A46A8
:100CC00021460368BDE870409B68184770BD00F579
:100CD0001270884208B505D10EF0BCFBBDE8084093
:100CE00000F058BF08BD70B590F829300446002BBD
:100CF00034D0408DA38D013080B2984260852DD3D1
:100D0000218EC01A628EE38D80B2521A656B00216B
:100D100012B2A84794F83030184484F828002046CE
:100D20000FF056FBA38DE18D628D0B449A4215D3D3
:100D3000002384F82930E3850EF08CFB21460EF069
:100D4000C1FBA06B50B10368DB68984730B1A06B62
:100D500021460368BDE870409B68184770BD0000DD
:100D600010B50446FFF738FD024B204623600023F0
:100D7000A36210BD1023029010B504462622002164
:100D80001EF0C5FD2046FFF727FD00232046A36285
:100D900084F82C30012384F82430044B23604FF670
:100DA000FF73E385238684F8323010BD6C330290E4
:100DB0002DE9F04F0446B1B000260FF0E9FE2246BF
:100DC000E14BE66330AD42F8403B10462992FFF715
:100DD0003BFD04F16C034FF6FF7704F1F40B04F5CF
:100DE000D87918462A93FFF72FFD04F1980325F8C8
:100DF000087D294618460993FFF73AFDD34BA4F81E
:100E0000C26004F5F07AC4F8983004F1C803A4F87D
:100E1000C46018462B93FFF717FD584609F060F998
:100E20004846FFF79DFFDFF838834FF0010329465E
:100E3000C4F8B081504684F8D431C4F8DC61ADF810
:100E4000B870FFF715FDC24B04F50772294684F808
:100E50000962C4F8E0311046A4F80A62A4F80C62F2
:100E6000C4F818620A92ADF8B870FFF701FD04F5F6
:100E7000127210460B92FFF77FFF04F51F721046A7
:100E80000C92FFF743FD04F52E7210460292FFF715
:100E900067FF4FF00103C4F8B882294684F8DC32BA
:100EA00004F53A73C4F8E4624FF4F07818460D93F1
:100EB000ADF8B870FFF7DCFC04F545732946ADF8D2
:100EC000B87018460E93FFF7D3FC04F5507318461C
:100ED0000F93FFF751FF04F55D7318461093FFF76A
:100EE00015FD04F56C7318460393FFF739FF04F5FD
:100EF00077732946ADF8B87018461193FFF7B8FC20
:100F000004F581632946ADF8B87018461293FFF7CF
:100F1000AFFC04F2344318461393FFF72DFF04F59A
:100F20008D6318461493FFF7F1FC04F2A4431846AE
:100F30000493FFF715FF04F59A632946ADF8B870DE
:100F400018461593FFF794FC04F2FC432946ADF8CC
:100F5000B87018461693FFF78BFC04F5A563184686
:100F60001793FFF709FF04F25C5318461893FFF735
:100F7000CDFC04F5B36318460593FFF7F1FE04F2C8
:100F8000C4532946ADF8B87018461993FFF770FCA2
:100F900004F5BE632946ADF8B87018461A93FFF7FA
:100FA00067FC04F21C6318461B93FFF7E5FE04F58B
:100FB000CA6318461C93FFF7A9FC04F28C63184619
:100FC0000693FFF7CDFE04F5D7632946ADF8B87058
:100FD00018461D93FFF74CFC04F2E4632946ADF874
:100FE000B87018461E93FFF743FC04F5E2631846F9
:100FF0001F93FFF7C1FE04F2447318462093FFF7D6
:1010000085FC04F5F06318460793FFF7A9FE04F288
:10101000AC732946ADF8B87018462193FFF728FC49
:1010200004F5FB632946ADF8B87018462293FFF724
:101030001FFC04F6040318462393FFF79DFE04F6F5
:10104000380318462493FFF761FC04F6740318462E
:101050000893FFF785FE04F50A632946ADF8B870DA
:1010600018462593FFF704FC04F6CC032946ADF897
:10107000B87018462693FFF7FBFB04F6F8034FF011
:101080007F4718462793FFF777FE04F62C13184680
:101090002893FFF73BFC2F4BCDF800803246C4F875
:1010A000683931462C4B2998C4F870394FF488734D
:1010B000C4F86C49C4F87469FFF7B3FB3246A766FD
:1010C0003146CDF800804FF488732A98FFF7A9FBCA
:1010D0004FF0FF3329460998C4F894300B23ADF83C
:1010E000B8300CF0DBF8CDF800804FF488734FF087
:1010F0001008324631460998FFF793FB32463146D5
:1011000009980CF0A9F8324631462B98CDF80080AA
:101110004FF48873FFF785FB104B32463146C4F815
:10112000F03040F2BF13584600934FF48873FFF736
:1011300078FB39468827584609F0A6FB42463B46CD
:10114000314648460EE000BFF80B0290EC320290A8
:10115000700B0290E00B0290CF0C0090D07678FFDD
:10116000E80A02900097FFF75CFB324650460E21DA
:10117000FFF74AFB4FF0090329465046ADF8B83057
:101180000CF0EDFB5146484608F064FB42460A98D5
:101190002021FFF739FB4FF00A0329460A98ADF8E2
:1011A000B8300CF0DCFB0A99484608F053FB0B986A
:1011B0001A222A21FFF728FB0DF1B40C4FF006018B
:1011C0004FF0050A2A460B98ADF8B4106146ADF809
:1011D000B8A00CF019FA04F668130B994846C4F845
:1011E000703208F037FB65220C982821FFF70CFBC2
:1011F0004FF0FF3CCE4B2946C4F8ACC20C98A4F883
:10120000B0622E93ADF8BC600BF0E7FF0C99484636
:1012100008F020FB494658464FF00E0908F091FCB3
:101220003B464246394602980097FFF7FAFA3246A3
:101230000D980E21FFF7E8FA29460D98ADF8B89001
:101240000CF08DFB0D99029808F004FB42460E98B5
:101250002021FFF7D9FA4FF00A0229460E98ADF87F
:10126000B8200CF07CFB0E99029808F0F3FA0F9866
:101270001A222A21FFF7C8FA0DF1B40C4FF006012B
:101280002A460F98ADF8B4106146ADF8B8A00CF03E
:10129000BBF90F99029808F0DDFA65221098282111
:1012A000FFF7B2FA4FF0FF3CA14B2946C4F8A4C3A4
:1012B0004FF0010C1098A4F8A863ADF8BCC02E93B1
:1012C0000BF08BFF1099029808F0C4FA0299584667
:1012D00008F037FC3B46394603980097B222FFF7E7
:1012E000A0FA324649461198FFF78EFA4FF00900EE
:1012F0002946ADF8B80011980CF031FB119903980C
:1013000008F0A8FA424612982021FFF77DFA4FF024
:101310000A0229461298ADF8B8200CF020FB129969
:10132000039808F097FA13981A222A21FFF76CFA0B
:101330000DF1B40C4FF006012A461398ADF8B41025
:101340006146ADF8B8A00CF05FF91399039808F066
:1013500081FA652214982821FFF756FA744B4FF052
:10136000FF3C29462E930223C4F898C41498A4F88D
:101370009C64ADF8BC300BF030FF1499039808F072
:1013800069FA0399584608F0DCFB3B46314604985D
:101390000097B122FFF745FA324649461598FFF704
:1013A00033FA29461598ADF8B8900CF0D8FA15998B
:1013B000049808F04FFA424616982021FFF724FAC5
:1013C0004FF00A0229461698ADF8B8200CF0C7FA7B
:1013D0001699049808F03EFA17981A222A21FFF766
:1013E00013FA0DF1B40C4FF006012A461798ADF828
:1013F000B4106146ADF8B8A00CF006F9179904983E
:1014000008F028FA652218982821FFF7FDF9484BC3
:101410004FF0FF3C29462E930323C4F88CC518983F
:10142000A4F89065ADF8BC300BF0D7FE189904987D
:1014300008F010FA0499584608F083FB3B463946F9
:10144000059800974FF4A972FFF7EBF93246494629
:101450001998FFF7D9F94FF009002946ADF8B800FF
:1014600019980CF07CFA1999059808F0F3F942469E
:101470001A982021FFF7C8F94FF00A0229461A9856
:10148000ADF8B8200CF06BFA1A99059808F0E2F95B
:101490001B981A222A21FFF7B7F90DF1B40C4FF06F
:1014A00006012A461B98ADF8B4106146ADF8B8A005
:1014B0000CF0AAF81B99059808F0CCF965221C9845
:1014C0002821FFF7A1F91A4B4FF0FF3C29462E9334
:1014D0000423C4F880C61C98A4F88466ADF8BC3018
:1014E0000BF07BFE1C99059808F0B4F90599584655
:1014F00008F027FB3B4631460698009740F2511210
:10150000FFF78FF9324649461D98FFF77DF92946C6
:101510001D98ADF8B8900CF022FA1D99069808F0C5
:1015200099F942461E982021FFF76EF902E000BFAC
:10153000940902904FF00A0229461E98ADF8B8208F
:101540000CF00DFA1E99069808F084F91F981A22DB
:101550002A21FFF759F90DF1B40E4FF0080C2A4675
:1015600071461F98ADF8B4C0ADF8B8A00CF04CF8B7
:101570001F99069808F06EF9652220982E21FFF732
:1015800043F94FF0FF3E704B2946C4F874E72098AA
:10159000A4F878672E93ADF8BCA00BF01EFE20993E
:1015A000069808F057F90699584608F0CAFA3B46DB
:1015B00039460798009740F2F312FFF732F93246A6
:1015C00049462198FFF720F94FF009002946ADF868
:1015D000B80021980CF0C3F92199079808F03AF95E
:1015E000424622982021FFF70FF94FF00A022946C0
:1015F0002298ADF8B8200CF0B2F92299079808F0BB
:1016000029F923981A222A21FFF7FEF82DA84FF076
:1016100006012A46ADF8B8A0ADF8B41001462398EB
:101620000BF0F2FF2399079808F014F9652224982B
:101630002821FFF7E9F84FF0FF304FF00601424B49
:10164000C4F86808ADF8BC1029462498A4F86C6862
:101650002E930BF0C2FD2499079808F0FBF8079928
:10166000584608F06EFA3B463146089800974FF40A
:10167000F972FFF7D6F8324649462598FFF7C4F8C5
:1016800029462598ADF8B8900CF069F92599089885
:1016900008F0E0F8424626982021FFF7B5F84FF011
:1016A0000A0229462698ADF8B8200CF058F9269978
:1016B000089808F0CFF827981A222A21FFF7A4F8F3
:1016C0004FF0080C2A462DA92798ADF8B4C0ADF804
:1016D000B8A00BF099FF2799089808F0BBF8289854
:1016E00065222E21FFF790F8174B4FF0FF32294665
:1016F0002E930723C4F85C29251D2898A4F8606957
:10170000ADF8BC300BF069FD2899089808F0A2F8F4
:101710000899584608F015FA2999284608F09AF8C9
:101720002A99284608F096F80999284608F092F870
:101730002B99284608F08EF82846594608F08AF872
:10174000204631B0BDE8F08F940902907047704791
:1017500041607047704701230372704770477047BC
:10176000704710B40A680B460021146DB0F92020B0
:10177000184623465DF8044B18477047704770477A
:101780007047436800F124011A681846126E10472A
:101790001FB50A4B04461C226946CDE9003040685B
:1017A0000123CDE9022303685B6F9847606804F169
:1017B00024010368DB6D984704B010BD340D02901E
:1017C000044B08461A880B68002152421B6D12B266
:1017D000184700BF82320120704710B50022B1F9CE
:1017E0000840B1F90A10028042808480C18010BD97
:1017F00030B4C568034644686A10ED079B6804EB83
:10180000020048BFA25830BC48BFD35818474368AD
:101810002BB183682BB9C06800F0010070471846EF
:10182000704701207047436800F110011A6818469C
:10183000126E1047436800F110011A681846D26D05
:1018400010477047704710B50022B1F90840B1F950
:101850000A10028042808480C18010BD10B4C46828
:10186000034641686210E4079B6801EB020048BF31
:101870008A585DF8044B48BFD358184743682BB1CA
:1018800083682BB9C06800F00100704718467047A4
:101890000120704710B504460C211DF0B7FF20460B
:1018A00010BD10B504464FF4AC711DF0AFFF2046DB
:1018B00010BD10B5044610211DF0A8FF204610BD34
:1018C00010B5044628211DF0A1FF204610BD10B51B
:1018D000044638211DF09AFF204610BD10B504467D
:1018E00028211DF093FF204610BD10B504464C2161
:1018F0001DF08CFF204610BD10B5044610211DF0D0
:1019000085FF204610BD10B50DF0A4FD0368BDE8AD
:1019100010401B6B184770B50368044615465B6B97
:1019200098472368294620469B6BBDE870401847BE
:10193000044B1B6893F876200AB1D86C00B99868FC
:10194000704700BF8C3201202DE9F0410446407FF2
:1019500086B00130237FC0B2984260774AD8B4F98C
:101960001E2000210FF097FA83B213F0010248D035
:101970004FF6FF710028D8BF0A4613442384B4F9F8
:101980002010638C6184CB1A617F9BB201291AB24B
:10199000228428D11C49097829B31C4F0025ADF8B1
:1019A0000A201B4E3A88ADF80850ADF80C2032885A
:1019B000D31AADF80E30174B18680368DB6A9847E6
:1019C0003B8880460495ADF814303388ADF8163066
:1019D000FFF7AEFFFF22036841460195009204AA7B
:1019E000DD6802ABA847606804F10C0103685B6F17
:1019F000984703E0012323720023637706B0BDE814
:101A0000F0812084BBE700BF8A32012080320120B0
:101A1000823201208C3201202DE9F0410446807A87
:101A200086B00130637AC0B29842A0724DD8B4F942
:101A30000C2000210FF02FFA83B213F001024BD0DB
:101A40004FF6FF710028D8BF0A461344E381234EA6
:101A50000025E1893388224F5B1A628BB7F90000B9
:101A60009BB2ADF81050ADF8140019B26068D31AEB
:101A70006183ADF8121004A9ADF8163003681B6934
:101A80009847A37A012B24D1164B1B780BB354F83B
:101A9000140F02AB616803C3134B18680368DB6A59
:101AA00098473B8880460495ADF814303388ADF8EC
:101AB0001630FFF73DFFFF22036841460195009273
:101AC00004AADC6802ABA04703E0012323720023D1
:101AD000A37206B0BDE8F081E081B8E78232012050
:101AE000803201208A3201208C320120F8B5044670
:101AF00017460E460DF018FD124B0025C4F8507124
:101B000001211C60104BC4F8385123600F4BC4F8FE
:101B10003C51C4F840310E4BC4F844511868C4F825
:101B20004851C4F84C51C4F8546103689B68984705
:101B3000284600F0A1FCFFF7FBFE15F0FEF820465A
:101B4000F8BD00BFF8320120440C02902C0C02902A
:101B50008C320120064BC0F84401C0F84831002304
:101B6000C0F84C3100F5A073C0F83C31704700BF9D
:101B7000F51C0090064BC0F84401C0F84831002322
:101B8000C0F84C3100F5A073C0F83C31704700BF7D
:101B9000D11E0090064BC0F84401C0F84831002324
:101BA000C0F84C3100F5A073C0F83C31704700BF5D
:101BB000992000902DE9F04707469068994688469D
:101BC00003681546DDF820A01B6A984740F6771396
:101BD000984205D8414BA321414A42481DF022FEBC
:101BE000686803681B6A98470F2803D83E4BA421F6
:101BF0003B4AF2E7E86803681B6A98470B2803D85A
:101C00003A4BA521364AE8E70DF024FC0DF070FCB4
:101C1000D9F8000010B10368DB689847D9F80000D4
:101C200010B103681B689847386810B103685B6996
:101C30009847D8F8000010B103685B689847386887
:101C400010B103681B689847D8F8000010B103680A
:101C50009B689847E868002103685B6A98470446D8
:101C600020B1002343600372214B0360A868002168
:101C700003685B6A9847064608B1FEF7F7FC686898
:101C8000002103685B6A9847054610B13146FEF7AC
:101C9000D3FCC9F80040C8F800503E60E5B12B1DE8
:101CA000CAF800303046C5F808A03368F563DB6831
:101CB00098472B6828461B689847214630460FF006
:101CC000E4F8236820461B699847236820465B692F
:101CD00098472846BDE8F0872B46E1E7D40D0290EF
:101CE000E90F0290620E0290A30E0290460F02903E
:101CF000880C029007B5D0F8543100F59C71009320
:101D0000044BD0F850210448FFF754FF03B05DF8AE
:101D100004FB00BFEC320120E83201202DE9F84F2E
:101D2000074690689946884603689346DDF828A0E0
:101D30001B6A984740F67713984205D85A4BA3215F
:101D40005A4A5B481DF06EFDDBF8040003681B6A0D
:101D500098470F2803D8574BA421544AF1E7DBF8E2
:101D60000C0003681B6A98474B2803D8524BA521E7
:101D70004E4AE6E70DF06EFB0DF0BAFBD9F8000015
:101D800010B10368DB689847D9F8000010B1036808
:101D90001B689847386810B103685B699847D8F8A2
:101DA000000010B103685B689847386810B1036899
:101DB0001B689847D8F8000010B103689B689847E3
:101DC000DBF80C00002103685B6A98470446002892
:101DD00030D03A4B0126002528220360384B294693
:101DE000456005720562C0E903302023C0E905366D
:101DF0001423838300F1240318461DF088FD314A23
:101E000031496262314A2585B2F900206585A58590
:101E1000E58525866586A586E586A4F84450A4F860
:101E2000465084F8485084F84960E283B1F90010C4
:101E3000FFF771FDDBF80800002103685B6A984733
:101E4000064608B1FEF712FCDBF804000021036827
:101E50005B6A9847054610B13146FEF7EDFBC9F8BD
:101E60000040C8F800503E60E5B12B1DCAF80030B4
:101E70003046C5F808A03368F563DB6898472B68DF
:101E800028461B689847214630460EF0FEFF23681F
:101E900020461B699847236820465B699847284677
:101EA000BDE8F88F2B46E1E7D40D0290ED100290CB
:101EB000620E0290A30E0290460F0290B00D0290A7
:101EC000340D02904C0D02908032012082320120AC
:101ED00007B5D0F8543100F59C710093044BD0F84D
:101EE00050210448FFF71AFF03B05DF804FB00BF60
:101EF000EC320120E83201202DE9F84F07469068C6
:101F00009946884603689346DDF828A01B6A9847DF
:101F100041F2FB23984205D8564BA321564A574815
:101F20001DF080FCDBF8040003681B6A98470F284B
:101F300003D8534BA421504AF1E7DBF80C000368A7
:101F40001B6A9847372803D84E4BA5214A4AE6E733
:101F50000DF080FA0DF0CCFAD9F8000010B103684A
:101F6000DB689847D9F8000010B103681B689847F0
:101F7000386810B103685B699847D8F8000010B161
:101F800003685B689847386810B103681B68984716
:101F9000D8F8000010B103689B689847DBF80C0084
:101FA000002103685B6A9847044648B3364B002516
:101FB00028220360142345602946437200F1100370
:101FC00005728572C58118461DF0A1FC01222F49BA
:101FD00084F835202E4AA58222612E4AE582B2F984
:101FE000002025836583A583E58325846584258674
:101FF000658684F83450A281B1F90010FFF78BFC9C
:10200000DBF80800002103685B6A9847064608B1C0
:10201000FEF7DEFADBF80400002103685B6A9847EC
:10202000054610B13146FEF7EBFAC9F80040C8F892
:1020300000503E60E5B12B1DCAF800303046C5F8AF
:1020400008A03368F563DB6898472B6828461B684F
:102050009847214630460EF018FF236820461B693A
:102060009847236820465B6998472846BDE8F88F63
:102070002B46E1E7D40D02900C120290620E029002
:10208000A30E0290460F0290100D029080320120A4
:10209000AC0C02908232012007B5D0F8543100F523
:1020A0009C710093044BD0F850210448FFF724FFA3
:1020B00003B05DF804FB00BFEC320120E8320120E0
:1020C00013B5002249B102AB019203F8052D026855
:1020D000946801AAA04702B010BD0846FBE74089FA
:1020E000704780897047808870478379808818445A
:1020F00080B27047C07900F07F007047C079C00996
:102100007047006A7047406A704770478B888069E3
:10211000DB0A0A6850F823001044704710B5C2B1BA
:10212000137BB3B1547BD27A240204F4E0641443E9
:10213000C26998B202EB840213888B4202D192F9F1
:10214000020010BD05D80138043280B20028F3D156
:10215000F7E70020F5E710B5044628211DF056FBEF
:10216000204610BD30B589B00446BDF850500695E4
:10217000BDF84C5005959DF8405004959DF83C5095
:1021800003959DF8385002959DF8345001959DF8BF
:10219000305000950EF0DCF9064B20462360119B71
:1021A000A361129BE361159B2362169B636209B0D6
:1021B00030BD00BF3413029030B5164D8DB02C7871
:1021C000BFF35B8F14F0010421D128461DF0F6FA0D
:1021D000E8B13F23012210490793104B089406935E
:1021E0000F4B039400940F48CDE904430423CDE939
:1021F0000944CDE9013213221523FFF7B3FF284626
:102200001DF0E8FA084A094906481DF0FAFA05489F
:102210000DB030BD4001002018011090B44E029066
:102220008413029044010020000000200B21009044
:1022300030B5164D8DB02C78BFF35B8F14F00104D0
:1022400020D128461DF0BAFAE0B13F2301221049FF
:102250000793104B089406930F4B039400940F4878
:10226000CDE904430423CDE90944CDE901320A2331
:10227000FFF778FF28461DF0ADFA094A09490748DB
:102280001DF0BFFA05480DB030BD00BF6C01002045
:1022900024021090B04E029088130290700100202A
:1022A000000000200B21009030B5164D8DB02C7829
:1022B000BFF35B8F14F0010420D128461DF07EFA95
:1022C000E0B13F23012210490793104B0894069375
:1022D0000F4B039400940F48CDE904430423CDE948
:1022E0000944CDE901322823FFF73CFF28461DF0C1
:1022F00071FA094A094907481DF083FA05480DB0EB
:1023000030BD00BF98010020DC081090AC4E029058
:102310008C1302909C010020000000200B210090F3
:10232000704710B5044604211DF070FA204610BD18
:10233000012908B508D003D3022909D0002002E002
:1023400000F012F8006808BD00F00EF84068FAE7E7
:1023500000F00AF88068F6E700487047A41302907E
:10236000102070471020704700487047C4010020BB
:1023700010B5054CFFF720FF2060FFF795FF606068
:10238000FFF756FFA06010BDC40100200020704779
:10239000002070470EB403B503AB002153F8042BA3
:1023A00001930DF0F3FE02B05DF804EB03B070474B
:1023B0000CB407B504AB53F8042B01930DF0E6FE03
:1023C00003B05DF804EB02B07047000010B5C36BBA
:1023D000044673B3038E2BB9184BBF21184A194812
:1023E0001DF020FAC38D00EB43035B8B0BB30FF0A2
:1023F00013FB238E012B03D8134BC421134AEEE7A2
:10240000E28D40F63F10531C9BB2092B194688BF42
:10241000A3F10A0104EB4101498B814209D10A2B46
:1024200004EB420228BF0023508B04EB4303588384
:1024300051832046BDE810400FF0D2B9E414029059
:1024400011160290ED140290311502903F15029082
:102450000FF080B910B586B002AC84E806001A46C9
:102460000AAB214605930193099B0093089B0CF04E
:10247000C1FB06B010BD000038B5D8B9114B1248E9
:102480001B681249BBB11A689C681A441C4402605C
:102490005A681A440A606CB10D4B00221A80FFF78B
:1024A00063FF0546FFF75EFF0A4B1C600A4B1D6089
:1024B0000A4B188038BD0A4B03600A4B0B600A4B6D
:1024C0001C68E8E7D0010020D4010020D8010020DA
:1024D000DC010020FC320120043301200033012004
:1024E00050091090EC0810904C091090044B1B6898
:1024F00053F82100034B1B6803EB4000704700BFFB
:10250000D8010020D4010020012380F8741080F845
:10251000753070470020704700207047836B0BB107
:102520000846184770474FF6FF70704740680368C9
:102530009B691847134A0023F0B5C2F88430BFF3F3
:102540004F8FD2F8803043F6E076C3F3C904C3F36B
:102550004E33A5075B0103EA060C284621464CEAE8
:102560000007013900F14040C2F874724F1CF6D1E7
:10257000203B13F1200FEED1BFF34F8FBFF36F8FCE
:10258000F0BD00BF00ED00E0034B902283F85A231A
:1025900083F85823704700BF00E100E0094A0A4968
:1025A000D3680A48C3F30A03013B9BB20B8011694D
:1025B000C1F30A01013901801364536B43F0010335
:1025C0005363704700680140E0010020DE010020F5
:1025D000014B986A704700BF84680140024B01229A
:1025E000996243F8602C704784680140034B5B6933
:1025F000DB0301D5FFF79EBF704700BF00ED00E091
:1026000070B5044608F0A3F92368DD6D0CF022FFD5
:1026100001462046A84723682046054AD3F8805043
:102620004FF04041034BAC46BDE87040604700BFEF
:1026300000FA05C000F40BC008B531B90A4B4FF4DD
:1026400025710A4A0A481DF0EDF8C0E90F12003260
:102650004364084918BF012200330A7018BF0123E0
:10266000054A137008BD00BFBC16029033170290D4
:10267000F41602908A3201208B32012008F04EB904
:1026800008F058B908B508F015F9044B5B69DB038D
:1026900003D5BDE80840FFF74DBF08BD00ED00E0E1
:1026A00008F063BA10B5044608F020FF23682046FE
:1026B000D3F8A030BDE81040184790F877301BB130
:1026C000406803681B6818471846704730B590F893
:1026D000744090F83410104B8C421A780DD05AB9CF
:1026E0000E4A0F4914880F480C8001880E4D118046
:1026F0000122298004801A7030BD002AFCD00948CC
:10270000074A0188084D1180044A1488118000226C
:102710002C800480EFE700BF84320120803201204A
:10272000863201208232012088320120034B4FF093
:1027300080629A604FF080729A60704700E100E01A
:10274000084B4FF08062C3F88820BFF34F8FBFF370
:102750006F8F4FF08072C3F88820BFF34F8FBFF3A5
:102760006F8F704700E100E0134B144A10B51B6CEB
:102770001188134C8B4213D1124B198802F0D4F8F4
:10278000226892F86630013382F8663000F024FA4D
:10279000206808F0ABFE0020BDE8104000F091BCBE
:1027A00002F0C2F8002000F08DFC20680368BDE84C
:1027B0001040DB69184700BF00680140E0010020BD
:1027C0008C320120DE01002003685B6C1847012079
:1027D000704703689B6A18470D4B82B01A6B42F42E
:1027E00000021A631A6B02F400020192019A1A693C
:1027F00042F400021A611A6922F400021A61054BC0
:10280000054A1A614FF08062044B9A6002B070472B
:10281000003802400C3501202928009000E100E03A
:1028200040F2EF3070470000024B1B6858680368A5
:102830005B6918478C32012008B50B280BD8DFE8FC
:1028400000F01206100A0A0A0A08080808080120FF
:1028500008BD0520FCE7054B6521054A05481CF02D
:10286000E1FF0020F4E70220F2E700BF9B1702908F
:1028700070180290B617029008B50A2809D8DFE848
:1028800000F010060E0808080806060606000120DB
:1028900008BD054B8621054A05481CF0C3FF0020F2
:1028A000F6E70220F4E700BF9B170290BC180290E5
:1028B000B6170290F8B50C46487FFFF7BDFF0546F6
:1028C000A77F3846FFF7B8FF06463846FFF7D4FF24
:1028D000A38A628BD21A514B1A64A18A628B521A54
:1028E0009A61A18A228B521A1A615863A18AE28ADC
:1028F00042EA01425A642269DA636268DA60226855
:10290000402A00F0838012D8042A49D0202A7DD0A2
:10291000237F45EA0365414B45F40035DD61A27F25
:10292000617F914214BF3E4A40F2012233E0B2F58A
:10293000807F1BD0B2F5007F2FD0802AE8D1A0681D
:10294000021DDA62227F45EA026545F40035DD6149
:102950005E6222695A6102784AB3012A3DD0314B46
:102960004FF48871304A31481CF05CFF217F304AB7
:1029700042EA0162DA61E1680A02480102F478027F
:10298000C90000F47C40C9B202430A431A625E6285
:1029900022695A61274A1A6035E0217F264AE7E713
:1029A000227F45EA026545F40035DD61EFE74288A4
:1029B0000125D969501E21F47F4222F0100242EA1B
:1029C0000022DA61154CE36943F02003E361E36917
:1029D0009B0613D500F020F9F9E7DA69418822F463
:1029E0007F42257F013922F01002FF3D42F01002A4
:1029F00018BF012542EA0122DA61E3E71023A36050
:102A000015B10C4B2360F8BD054BFBE7237F45EA6E
:102A10000365024B45F40035C7E700BF00B0024034
:102A2000010201008117029030180290B61702903F
:102A30000A000200010202000900020010B5887FAE
:102A40000C46FFF719FF254B5863A18AE28A42EA38
:102A500001425A642269DA63628BA18A521A1A64AB
:102A60002268082A20D1A18A628B521A9A61A18A0F
:102A7000628B521A1A615862194A217F42EA016236
:102A8000DA61E1680A02480102F47802C90000F440
:102A90007C40C9B202430A431A6222695A61226920
:102AA000DA60104A1A6010BD0022D8611A61A27F54
:102AB000E1681AB99963094B0B4AF3E70A02480126
:102AC00002F47802C90000F47C40C9B202430A4310
:102AD000217F42EA01629A63EDE700BF00B0024045
:102AE000090001000102020001020300054B4FF042
:102AF00080620360044BC3F88820BFF34F8FBFF39D
:102B00006F8F7047E817029000E100E010B50446AF
:102B1000FFF7ECFF4FF4426120461CF077FE2046A1
:102B200010BD000070B505460A4B0C3000262C463F
:102B3000602268602E726E7244F8203B214608F0D5
:102B400043FE05F54263E6602034A342FBD12846EC
:102B500070BD00BFE81702900121002208B50846A9
:102B600005F0B2F90A4B186028B90A4B27210A4A26
:102B70000A481CF057FE00220421012005F06EFADD
:102B8000074B186018B9074B2B21034AF0E708BD23
:102B9000E801002009190290BD1902905219029013
:102BA000E40100207B190290024B4FF0FF311868BE
:102BB00005F0E0B9E8010020014B186805F016BAED
:102BC000E8010020024B0021186805F0D3B900BFCE
:102BD000E8010020FFF7F0BF0023034803491A462D
:102BE000006805F081BA00BFE40100200400002065
:102BF00013B50023074C01A91A46206805F0B6FA60
:102C00004FF0FF33002201A9206805F0AFFA02B0AF
:102C100010BD00BFE401002005F01EB970477047E9
:102C20007047012070474C2070474C2303FB010084
:102C3000083070474C2303FB010008307047012027
:102C4000704741F2FC20704741F2FC2303FB010076
:102C50000830704741F2FC2303FB01000830704745
:102C6000012070471020704700EB011008307047BA
:102C700000EB0110083070470846FEF76BBF0000FC
:102C8000034B10B50446036006F0B2FA204610BDAF
:102C90005C1A029010B50446FFF7F2FF542120465B
:102CA0001CF0B4FD204610BD034B10B50446036074
:102CB00006F09EFA204610BD281A029010B5044670
:102CC000FFF7F2FF41F2043120461CF09FFD204641
:102CD00010BD0000034B10B50446036006F088FAEF
:102CE000204610BDF419029010B50446FFF7F2FF1C
:102CF000182120461CF08AFD204610BD094B10B556
:102D00000446036000F599501030FFF7B9FF04F155
:102D10002C00FFF7C9FF04F11400FFF7DBFF20468A
:102D200010BD00BF901A029010B50446FFF7E6FFF1
:102D30004FF4A75120461CF069FD204610BD00004D
:102D40002DE9F341FFF708FB00240546FFF708FBD8
:102D5000234601462246284600940FF061F9264B8F
:102D6000264A2046264D1A60FFF786FB25480FF0BD
:102D700099F82B78BFF35B8FDB0736D428461CF01D
:102D80001DFD002831D0204C204F04F1140004F127
:102D90002C0807F158061E4B6060C4F80880E760F5
:102DA0002661236006F026FA1A4B4046636106F05E
:102DB00021FA194B3846E36206F01CFA174B07F16B
:102DC00054003B60FDF75CFC224607F1540130469D
:102DD000FDF788FC3046FEF7BDFE28461CF0FAFCE5
:102DE0000F4A104920461CF00CFD0F4802B0BDE808
:102DF000F04100F0D7B800BF083301207023002055
:102E0000EC01002008000020F00100202015002027
:102E1000901A0290F4190290281A02905C1A0290FB
:102E200000000020FD2C0090F4220020014800F05A
:102E3000CFB800BFF422002010B5044604211CF0D6
:102E4000E5FC204610BD10B5044678211CF0DEFCE0
:102E5000204610BD10B504467C211CF0D7FC20464E
:102E600010BD0000F8B53A4C3A4D3B4B22463B4F63
:102E700028463B492B601CF0C4FC3A4E3846FFF70D
:102E800051FE2246384938461CF0BBFC304612F051
:102E900023FA2246354930461CF0B3FC2246344919
:102EA00034481CF0AEFC3448002301223349C5608D
:102EB000038580F82A30C362038680F8483080F8A2
:102EC000492080F84A3080F84B3041664FF4F07169
:102ED00080F8683080F8693080F86A3080F86B30AC
:102EE000274DC0E90176C0E90433C0E90633C0E9E3
:102EF0000833C0E90E33C0E91033C0E91333C0E929
:102F00001533C0E9173380F86C3080F8772080F8EB
:102F100078201C4A036710601B4A80F874301180C7
:102F20004FF4887280F875302A80184D80F876301A
:102F30002B70174D80F834302980164B16490360EA
:102F40000A8022461549BDE8F8401CF05ABC00BF73
:102F500000000020D0160020BC1B0290D4160020D8
:102F60001D2C009074230020ED2A00901F2C00904F
:102F70002123009008000020F4220020010000011D
:102F8000823201208C3201208032012084320120E3
:102F900086320120A41A029088320120212C009050
:102FA0007047000038B5044600F08AF8074D204607
:102FB000FFF726FB0023284684F84A3000F0B6F8D5
:102FC0000123256184F86C3038BD00BFEC2300205C
:102FD00008B5036804469B6F9847236820461B6F1B
:102FE0009847FFF705FE236820469B6E98474FF4ED
:102FF0008051074802F0CDFE0821064802F0C9FEC4
:10300000FFF7F6FD236820469B6E9847F8E700BF60
:103010000020024000280240FFF7DABAFFF7DEBACC
:10302000F8B5FFF72FFB134A0023C2F88430BFF333
:103030004F8FD2F8803043F6E076C3F3C904C3F370
:103040004E33A5075B0103EA060C284621464CEAED
:103050000007013900F14040C2F874724F1CF6D1EC
:10306000203B13F1200FEED1BFF34F8FBFF36F8FD3
:10307000F8BD00BF00ED00E0FFF786BAFFF756BBD2
:10308000FFF75EBBFFF78ABA07F00EBC10B5044627
:103090000C211CF0BBFB204610BD0000044800239F
:1030A000044A43608360044B044903601CF0A9BBDD
:1030B000EC23002000000020001C0290A12F0090B3
:1030C000704770477047704730B58DB00D46144655
:1030D00000212C2201A81CF01AFC01A805F002FE18
:1030E0009DF8040030B1BDF8063001202B60BDF81A
:1030F000103023600DB030BD08B54FF488714FF427
:10310000F07005F097FD28B1034B1D21034A0448D8
:103110001CF088FB08BD00BF681B0290CC1B02900E
:10312000891B02904068704741607047094A1368E4
:1031300043F080731360A2F54E42074B4C3A11687E
:103140000B431360A2F57B62136843F00103136025
:10315000704700BFFCED00E055CEACC5521A02EB43
:103160005302B2FBF3F07047014B1868704700BF81
:10317000041000E010B5036804461B6931B198479C
:10318000A26863689B1A1844606010BD9847A060ED
:10319000FBE7000014490020D1F8883043F47003A5
:1031A000C1F88830114B1A6842F001021A60986029
:1031B0001A6822F0847222F480321A600C4A5A6033
:1031C0001A6822F480221A60D8609A6B42F00102D9
:1031D0009A634FF02042136823F0010313604FF00D
:1031E00010438B60704700BF00ED00E000380240E4
:1031F0001030002408B5642004F04CFEFBE700000A
:1032000030B5B5B030220021012507A802241CF0FA
:103210007EFB1422002102A81CF079FB84220021ED
:1032200013A81CF074FB274B4FF0190C07A81A6C5D
:1032300042F080521A641B6C03F080530093009B91
:10324000214B1A6842F440421A601B6803F4404361
:103250000193019B4FF48033CDE907534FF4800372
:10326000CDE90D434FF4D873CDE91144CDE90FC337
:1032700001F00AFC00B1FEE701F076FB00B1FEE7C9
:103280000F2304904FF4A0500721CDE902344FF4EE
:103290008053CDE9050302A801F0D8FD00B1FEE797
:1032A00048231B9024901393642318930523CDE99E
:1032B0001D5013A8CDE9194300F0ACFE00B1FEE7A4
:1032C00035B030BD003802400070004080B598B085
:1032D0001022002101240BA81C261CF018FB03253A
:1032E00002F0ECFA4FF0005CAF4B0BA8ADF82C40AD
:1032F00040F20117CDE90CC3AC4B0E9302F000FB7A
:103300008DF82D404FF0404300240BA80C938DF80E
:1033100034608DF83740ADF83A4002F0F1FA0223FC
:103320000BA88DF837508DF82D301623ADF83A7074
:103330008DF8343002F0E4FA4FF010430BA88DF80A
:10334000346004260C938DF82D508DF83740ADF87D
:103350003A4002F0D5FA17230BA88DF82D608DF8AE
:1033600034308DF83750ADF83A7002F0C9FA0523C1
:103370000BA88DF838408DF82D3013238DF834309C
:1033800002F0BEFA304602F0A9FABFF34F8FBFF346
:103390006F8F874BC3F85042BFF34F8FBFF36F8FD0
:1033A0005A6942F400325A61BFF34F8FBFF36F8FF7
:1033B000C3F88440BFF34F8FD3F8802043F6E07604
:1033C000C2F3C904C2F34E32A507520102EA060C49
:1033D0002846214640EA0C07013900F14040C3F875
:1033E00060724F1CF6D1203A12F1200FEED1BFF3DC
:1033F0004F8F5A6942F480325A61BFF34F8FBFF347
:103400006F8F00F0A5FB0024FFF7FAFE14220021C5
:103410000BA81CF07CFA674B082167481A6B012542
:1034200042F010021A631A6B02F010020092009A26
:103430001A6B42F002021A631A6B02F00202019246
:10344000019A1A6B42F040021A631A6B02F04002B2
:103450000292029A1A6B42F400721A631A6B02F417
:1034600000720392039A1A6B42F008021A631A6BF5
:1034700002F008020492049A1A6B42F480621A6302
:103480001A6B02F480620592059A1A6B42F02002D0
:103490001A631A6B02F020020692069A1A6B42F423
:1034A00080721A631A6B02F480720792079A1A6B81
:1034B00042F001021A631A6B02F001020892089AA4
:1034C0001A6B42F080021A631A6B02F080020992B2
:1034D000099A1A6B42F004021A6300221B6B03F074
:1034E00004030A930A9B02F04FFC00224FF4805120
:1034F000324802F049FC08230BA92F48CDE90B35CF
:10350000CDE90D4402F0C4FA4FF480532B480BA9C7
:10351000CDE90B35CDE90D4402F0BAFA2848294B24
:10352000848003600562C0E9054401F017F800B12A
:10353000FEE7254C254BC4E90200C4E90030C4E98C
:103540000A00C4E90C00204602F02CFC00B1FEE7A2
:103550002946204602F0E6FC00B1FEE71C4B0421A0
:103560001C4A40249860C3E900201022C3E90312DA
:1035700080211192C3E90541C3E90700C3E90900AD
:103580000BA91846CDE90B22CDE90D22CDE90F227A
:1035900001F022FA00B1FEE705F034FB05F0E4FA91
:1035A0000546C8B1FEE700BF12000003010001019B
:1035B00000ED00E0003802400028024000200240F8
:1035C000B8330120003002400C35012000B0024029
:1035D0004C350120400100A0342201460BA8374C95
:1035E0001CF095F9364B2826352740F2152C40F271
:1035F000352E25612046A58684F83650C4E900356D
:103600000923C4E905630B23C4E9077340F21B13C4
:10361000C4E909C340F21D13C4E90255C4E90BE330
:1036200001F07CF8024600B1FEE74FF4F0714FF470
:1036300088730B904FF480651693ADF85C208DF87D
:103640005E20CDE90C100220CDE90E30FF20CDE93F
:1036500010020520CDE91421CDE912500BA9204616
:1036600001F039F900B1FEE7164B4FF4E13216498B
:1036700018615862C3E900120C22C3E90200C3E9D1
:103680000520C3E90700184600F094FC00B1FEE7EE
:1036900002F045FE04F050FB0C4A00210C4804F0F7
:1036A00085FB0C4B0C4A002118600C4804F07EFB93
:1036B0000B4B186004F05AFBFEE700BFDC3301201F
:1036C0000068014088340120001001405C1C029019
:1036D000F5310090B4330120381C02902363009030
:1036E000843401200268034B9A4201D100F046BAAB
:1036F000704700BF0010004010B5014688B000229E
:10370000362002F087F8362002F0B6F8144B01A9F3
:1037100003A81A6C134C42F010021A641B6C03F0DD
:1037200010030293029B01F053FC01F031FC0E4B9D
:103730004000236040F2E733E3600C4BB0FBF3F052
:1037400001380023606020462361A36002F094FDED
:1037500020B9204602F032FC08B010BD0120FBE782
:1037600000380240803501200010004040420F0028
:103770000D4B82B00F216FF001001A6C42F08052A5
:103780001A641A6C02F080520092009A5A6C42F449
:1037900080425A6400225B6C03F480430193019BD6
:1037A00002B002F037B800BF00380240026882B0B1
:1037B000084B9A420BD1D3F8302803F5006342F44A
:1037C00080521A631B6B03F480530193019B02B078
:1037D000704700BF0030024007B50E4B02689A42A6
:1037E00015D1A3F5F04305215A201A6B42F40002CB
:1037F0001A6300221B6B03F400030193019B02F088
:1038000009F85A2003B05DF804EB02F035B803B0B4
:103810005DF804FB00B0024070B58CB00446142281
:10382000002107A81CF073F822683E4B9A4277D11A
:1038300003F5504302240E2607A95A6C00253A4886
:1038400042F080625A645A6C02F080620192019ADE
:103850001A6B42F010021A631A6B02F01002029205
:10386000029A1A6B42F400721A631A6B02F4007225
:103870000392039A1A6B42F480621A631A6B02F481
:1038800080620492049A1A6B42F040021A631A6B27
:1038900002F040020592059A1A6B42F480721A6394
:1038A0001B6B03F480730693069B1023CDE907344A
:1038B0000A940B9602F0ECF84EF6FF7307A91B482A
:1038C0000B96CDE90734CDE9095402F0E1F8F7236E
:1038D00007A917480B96CDE90734CDE9095402F042
:1038E000D7F84FF4805307A91248CDE907340923CC
:1038F000CDE909540B9302F0CBF84FF4464307A9E6
:103900000D480B96CDE90734CDE9095402F0C0F813
:1039100058202A46052101F07DFF582001F0ACFF18
:103920000CB070BD0068014000100240002402404D
:1039300000280240001802400020024070B588B004
:1039400004461422002103A81BF0E1FF22681D4B4E
:103950009A4234D103F594330226032507245A6C86
:1039600003A9194842F010025A645A6C02F010027E
:103970000092009A1A6B42F002021A631A6B02F06C
:1039800002020192019A1A6B42F001021A631B6B48
:1039900003F001030293029B8023CDE90654CDE995
:1039A000033602F075F84FF4007303A90748079433
:1039B000CDE903360023CDE9053502F069F808B0FA
:1039C00070BD00BF00100140000402400000024032
:1039D000F0B587B01422002101A81BF098FF2A4BF4
:1039E0001E68002E4ED10122022703250C241A60E6
:1039F00001A9264B26489A6B42F001029A639B6B01
:103A000003F001030093009B4FF68373CDE9045448
:103A1000CDE9013702F03CF848F2331301A91D4803
:103A20000594CDE90137CDE9036502F031F84CF298
